:020000040800F2
:100000000050002071310008B9310008B9310008F2
:10001000B9310008B9310008B9310008000000000A
:10002000000000000000000000000000B9310008DE
:10003000B931000800000000B9310008C506000809
:10004000A7080008A9080008AB080008AD080008C8
:10005000AF080008B1080008B5080008D10800087A
:10006000ED0800080909000825090008A90A000888
:10007000C50A0008E10A0008FD0A0008190B00087B
:10008000350B0008510B000841090008430900081E
:100090004509000847090008490900084D090008FA
:1000A000B9090008BB090008BD090008BF0900081C
:1000B000C1090008C3090008C5090008C7090008EC
:1000C000C9090008CB090008CD090008CF090008BC
:1000D000D1090008550A0008710A00088D0A0008B5
:1000E000D5090008510A0008530A00080000000062
:1000F0000000000000000000000000000000000000
:0C01000000000000000000005FF808F1A3
:10010C000448054B10B5834203D0044B002B00D0A0
:10011C00984710BD000000200000002000000000E7
:10012C0006480749091A8B10C90FC91810B5491090
:10013C0003D0044B002B00D0984710BD00000020CA
:10014C00000000200000000010B5074C2378002BA5
:10015C0009D1FFF7D5FF054B002B02D00448AFF3B4
:10016C0000800123237010BD00000020000000005F
:10017C00BC310008054B10B5002B03D004490548D1
:10018C00AFF30080FFF7CCFF10BDC04600000000AD
:10019C0004000020BC31000870B50C4D0C4E761BD1
:1001AC00B61005D0002408CD01349847A642FAD1E8
:1001BC0002F0FEFF074D084E761BB61005D000244A
:1001CC0008CD01349847A642FAD170BD74340008AA
:1001DC0074340008743400087C34000830B5032AE9
:1001EC000CD903000B439B071CD103680C68A3427A
:1001FC0018D1043A04300431032AF6D8551E002ACB
:10020C000ED002780C7894420ED1013501230139BD
:10021C0004E0C25C0133CC5CA24205D1AB42F8D104
:10022C00002030BD551EECE7101BFAE7F0B5C646B2
:10023C0000B50F2A43D90B00032603431E400C00C4
:10024C000300002E40D11500103D2D09AC462D01A8
:10025C00A846804400E03B00676825685F60E7685B
:10026C001D60DF601F00A56810379D60103443458A
:10027C00F1D165460F230C2401352D01491913408A
:10028C004519144223D08C59AC5104369C1B032CB9
:10029C00F9D80324043B9B0801339B002240ED1842
:1002AC00C918561E002A07D0002300E02300CA5CA0
:1002BC005C1CEA549E42F9D104BC9046F0BD05008A
:1002CC00561E002AF0D1F7E7561E0500ECE71A007F
:1002DC00F6E7C046F0B5050083074AD0541E002A45
:1002EC0044D0CEB20300032202E00135013C3DD3E1
:1002FC0001332E701342F8D1032C2FD9FF220A4060
:10030C00150215432A0415430F2C35D92700103F2D
:10031C003F093E01B4461E001A00103666441560B3
:10032C0055609560D5601032B242F8D10F260C2280
:10033C0001373F012640DB193700224217D03E1F00
:10034C00B608B400A4461A001C1D644420C2A24284
:10035C00FCD103240136B6009B193C40002C05D07F
:10036C00C9B21C19197001339C42FBD1F0BD340089
:10037C00F4E714000300BFE72700E0E702B471467E
:10038C0049084900095C49008E4402BC7047C046CC
:10039C00002243088B4274D303098B425FD3030AB8
:1003AC008B4244D3030B8B4228D3030C8B420DD3CB
:1003BC00FF22090212BA030C8B4202D31212090259
:1003CC0065D0030B8B4219D300E0090AC30B8B4297
:1003DC0001D3CB03C01A5241830B8B4201D38B0345
:1003EC00C01A5241430B8B4201D34B03C01A5241EA
:1003FC00030B8B4201D30B03C01A5241C30A8B422D
:10040C0001D3CB02C01A5241830A8B4201D38B0217
:10041C00C01A5241430A8B4201D34B02C01A5241BB
:10042C00030A8B4201D30B02C01A5241CDD2C3092D
:10043C008B4201D3CB01C01A524183098B4201D3A9
:10044C008B01C01A524143098B4201D34B01C01A94
:10045C00524103098B4201D30B01C01A5241C3080C
:10046C008B4201D3CB00C01A524183088B4201D37B
:10047C008B00C01A524143088B4201D34B00C01A67
:10048C005241411A00D20146524110467047FFE7D3
:10049C0001B5002000F006F802BDC0460029F7D0D7
:1004AC0076E770477047C0461F22430910401E3A3A
:1004BC00824002499B005A507047C04600E100E060
:1004CC00C3690133C36170470B1A9B10002B14DDF9
:1004DC000278002A03D04278002A01D101307047FB
:1004EC008278002A01D10230F9E7C278002A01D1C2
:1004FC000330F4E70430013BE8E70B1A022B09D078
:10050C00032B03D0012B09D00800E8E70378002B5C
:10051C00E5D001300378002BE1D001300378002BBB
:10052C00F2D1DCE70B1A9B10002B14DD0278002AA9
:10053C0003D14278002A01D0013070478278002A1A
:10054C0001D00230F9E7C278002A01D00330F4E779
:10055C000430013BE8E70B1A022B09D0032B03D024
:10056C00012B09D00800E8E70378002BE5D1013016
:10057C000378002BE1D101300378002BF2D0DCE7BB
:10058C0010B50400002C05D0236820001B68984788
:10059C006468F7E710BD0000030010B5044A1800AA
:1005AC00994204D002339C1E24889442F7D010BD8B
:1005BC00FFFF00000369F7B5114A013304009342B1
:1005CC001CD1002506003C27436C056100931436B2
:1005DC00009B1B78AB4212DDE36B01201B883900BA
:1005EC002B4198433368C018236C01C60193FFF765
:1005FC00CFFE019B6A0098520135E9E70361F7BD14
:10060C0060EA00000022F0B5040016000121C36B63
:10061C0010341D78954211DD9300E7583B687F68D4
:10062C009B689C460B00BB401F0063463B405F1E13
:10063C00BB4193401E43B6B20132EBE7836B1E8085
:10064C00F0BD000003691B0603D5024B4360024B4F
:10065C004360704723016745AB89EFCD01220369E5
:10066C0093430361022302691343036180239B02BA
:10067C00C918402389024161026913430361704721
:10068C0010B50468002C05D0236820001B6898471F
:10069C00A468F7E710BD10B504000830FFF7F0FFB1
:1006AC0020696169431C2361FFF7F8FE002902D120
:1006BC002000FFF7E5FF10BD10B50248FFF7EBFF78
:1006CC0010BDC04620040020037B002B0DD000235E
:1006DC00426803738368002A0ED0002B08D0936005
:1006EC0083685A6000234360836070470B60F8E7AF
:1006FC00044993604A60F5E70249002BF6D10B6080
:10070C004B60EFE720040020037B002B0CD101335E
:10071C000373064B5A684260002A00D090601A6836
:10072C005860002A00D118607047C0462004002091
:10073C0070B58225AD0043590400022B14D0032B55
:10074C0024D0012B0FD123000021B0331A781030A4
:10075C0019708A4207D0FFF7B7FF2000B830FFF7B7
:10076C00D3FF0223635170BD230000215933FF33A3
:10077C001A78B83019708A42F5D0FFF7A5FF20001F
:10078C006130FF30FFF7C0FF0323EBE7802300212C
:10079C009B00C3181A7819708A42E4D06130FF307C
:1007AC00FFF792FF20001030FFF7AEFF0123D9E7CF
:1007BC00806810B50369FC33DA691268D2060ED56D
:1007CC000021FF245A6A5268596092B2A11AA142C0
:1007DC0000D921009960FF2A01D0FFF795FF10BDC9
:1007EC0010B504000800072A18D1204B5B689B0445
:1007FC005B0F1BD0042B1BD0052B1BD0063B5A1EAA
:10080C0093411B4A5B4213401A4A9B18072819D87C
:10081C00FFF7B4FD121A1C1F21242629083A0023C5
:10082C00012AF3D8114B5B685B05E1E7124BEDE74E
:10083C00124BEBE7124BE9E7962189011800FFF701
:10084C00A7FDA060200010BDE121F6E79621C901AB
:10085C00F4E7E121FBE796210902EFE7E121FBE751
:10086C0096214902EAE7E121FBE7C046001002406D
:10087C00E055BBFF4054890000A24A0400512502F8
:10088C0080A812010123C9B2890003398B4000688A
:10089C001840431E9841C0B27047FEE7FEE7FEE7E2
:1008AC00FEE7FEE7FEE70000044B10B51868FFF703
:1008BC0067FE0122024B5A6110BDC0468003002026
:1008CC0000040140044B10B51868FFF759FE0222D2
:1008DC00024B5A6110BDC046880300200004014041
:1008EC00044B10B51868FFF74BFE0422024B5A61FB
:1008FC0010BDC046C003002000040140044B10B5DD
:10090C001868FFF73DFE0822024B5A6110BDC04625
:10091C00C803002000040140044B10B51868FFF711
:10092C002FFE1022024B5A6110BDC046D00300208E
:10093C0000040140FEE7FEE7FEE7FEE7FEE70000ED
:10094C0010B5144C63699B0603D5134B1868FFF75D
:10095C0017FE63695B0603D5104B1868FFF710FE92
:10096C0063691B0603D50E4B1868FFF709FE636914
:10097C00DB0503D50B4B1868FFF702FE63699B057B
:10098C0003D5094B1868FFF7FBFDF8239B00636147
:10099C0010BDC04600040140D8030020E003002035
:1009AC00E8030020F0030020F8030020FEE7FEE738
:1009BC00FEE7FEE7FEE7FEE7FEE7FEE7FEE7FEE703
:1009CC00FEE7FEE7FEE7000010B5174C63695B0518
:1009DC0003D5164B1868FFF7D3FD63691B0503D5C8
:1009EC00134B1868FFF7CCFD6369DB0403D5114B7F
:1009FC001868FFF7C5FD63699B0403D50E4B186897
:100A0C00FFF7BEFD63695B0403D50C4B1868FFF759
:100A1C00B7FD63691B0403D5094B1868FFF7B0FDDC
:100A2C00FC231B02636110BD0004014090030020F5
:100A3C0098030020A0030020A8030020B00300208E
:100A4C00B8030020FEE7FEE7044B10B51868FFF76B
:100A5C0097FD034B1A685B6810BDC0460804002064
:100A6C0000380140044B10B51868FFF789FD034BA3
:100A7C001A685B6810BDC04610040020004400409A
:100A8C00044B10B51868FFF77BFD034B1A685B68C5
:100A9C0010BDC0461804002000480040044B10B59F
:100AAC001868FFF76DFD0122024B5A6010BDC0465D
:100ABC004803002000000240044B10B51868FFF7F3
:100ACC005FFD1022024B5A6010BDC046500300203F
:100ADC0000000240044B10B51868FFF751FD80224E
:100AEC00024B52005A6010BD580300200000024017
:100AFC00044B10B51868FFF743FD8022024B5201DE
:100B0C005A6010BD6003002000000240044B10B579
:100B1C001868FFF735FD8022024B52025A6010BD57
:100B2C006803002000000240044B10B51868FFF762
:100B3C0027FD8022024B52035A6010BD7003002027
:100B4C0000000240044B10B51868FFF719FD802215
:100B5C00024B52045A6010BD780300200000024082
:100B6C00436800685B00C01870470022010070B534
:100B7C001000012426009300CD582B686D689B68EB
:100B8C00AE4033405D1EAB41934001321843C0B2BE
:100B9C00042AEFD1087470BD10221F4B19680A4348
:100BAC0007211A601A688A43110002220A431A604C
:100BBC0080221A4B520219680A431A601A6892036F
:100BCC00FCD5F0215A688A435A605A68144911407E
:100BDC008022D2000A435A605A6812490A405A606D
:100BEC008022596852020A435A605A680E491140D1
:100BFC00E02252030A435A608022196852040A43C5
:100C0C001A601A689201FCD503215A688A431100B4
:100C1C0002220A435A607047002002400010024032
:100C2C00FFF8FFFFFFC7FFFFFFFFC3FFF8B501236E
:100C3C00704A714F12681A427ED1704A704910681E
:100C4C00184204D16F48136008600A2048601022D3
:100C5C000120BB696C4C1343BB61BB690D6803433A
:100C6C00BB616B681C40A0231B0123436B603025C8
:100C7C00664B5C68AC432243654C5A602568654AF8
:100C8C00054204D15F4D206015600B255560102482
:100C9C00B86926002043B8611068BC6984460120FD
:100CAC000443BC6164465C4D646825408024E401C7
:100CBC002C4365466C6030255C68AC4334435C6007
:100CCC00564C2568054205D1554D564E20602E6078
:100CDC000F266E600420BC69514D20430124B8617D
:100CEC00286826008446B8692043B86158684E4C81
:100CFC0004408020800420435860634680205B6859
:100D0C0080051B011B09034360464360474B0020D1
:100D1C00FC331A61464A58609A61464A9860DA6117
:100D2C00454AD9601A62454A5D615A6209229A6243
:100D3C00073ADA622F4B1E6080233C4EFA6934006E
:100D4C00DB0213430822FB61FC34E3698025D9687C
:100D5C0004200A43DA600422D9680A43DA605A692B
:100D6C002A435A61402259690A435A61344B185636
:100D7C00FFF79AFB01237A69324913437B611027F1
:100D8C00236A31481A683A431A6062689219DA6029
:100D9C00E26904329A601A682A431A601A680A4097
:100DAC001A601A6802401A600222042019680A4369
:100DBC001A60264B1856FFF777FB636A21491A68AD
:100DCC002148BA431A6062689219DA60E269043207
:100DDC009A60FF225A601A6815431D601A680A400F
:100DEC001A601A6802401A602022196830000A43FF
:100DFC001A60F8BD6801002000100240B00200200B
:100E0C00B402002000100140FFF0FFFF0000014081
:100E1C00A4020020A8020020FF0FFFFF9802002070
:100E2C009C02002000080140FFFFFFF86C0100202D
:100E3C0000000240004800401C000240300002400C
:100E4C0018040020FFF3FFFFFFFCFFFF50030020FE
:100E5C000023FC30426930B54360836014685168EC
:100E6C000122130010318B402569016A2B43236149
:100E7C000B6893430B60436A196891431960FF2117
:100E8C00596019680A431A601A68D207FCD51023F6
:100E9C00C269D1680B43D36030BD10B58468236937
:100EAC00FC33D96A9869FFF7EDFC002802D0206961
:100EBC00FFF7CEFF10BD10B5040000686368020098
:100ECC001B68B8325361A8325361FFF71DFC2068D0
:100EDC001030FFF719FC8223012122689B00D150AE
:100EEC0010BD0000F7B57E4A012311687D4D0C0042
:100EFC00AC461C40194203D17B496C6029601360DD
:100F0C0004227A4B0F2599691143996161460C684B
:100F1C002168A9430A432260012275490C681442D6
:100F2C0004D1744D704C6A602C600A60042299697B
:100F3C000A43F0219A616F4A146822688A431100AF
:100F4C0040220A43226001246B490D68254205D1D9
:100F5C00654D6A4A0C6015600225556004219C6938
:100F6C00664A214399611568654C29680C408021BB
:100F7C00C900214329600125624C634926682E4231
:100F8C0004D1594E25600E6003264E6004279C69DF
:100F9C005E4D3C439C610E68346825408024E4011E
:100FAC002C43346001265A4D5A4C2A68324203D1E4
:100FBC004D4A676022602E6004259E6935439D6111
:100FCC00276880243D68544EE40235402C433C6035
:100FDC000127524D524C2A6800963A4204D1424E97
:100FEC002F6026600526666004259E6935439D6149
:100FFC00276880243D684B4EE40335402C433C600D
:10100C000127494D494C2A6801963A4204D1364E83
:10101C002F6026600626666004259E6935439D6117
:10102C002668434D346825408024E4042C43012574
:10103C003460404C22682A4204D107273E4E2A4A8B
:10104C00256084C604279C6980253C439C613A4CEE
:10105C00ED0526683468BC40FC402C433460012606
:10106C00364D374C2A68324203D1364A67602260CB
:10107C002E6010259E6935439D61256880242E685D
:10108C00009AE402164026432E6001252E4C22685D
:10109C002A4204D105272D4E2A4A256084C61024E5
:1010AC0080269D69F6032C439C61284B019A1C6891
:1010BC00256815402E4326600360214B81614360F7
:1010CC001D4B8360194BC360154B0361114B43617E
:1010DC000A4BC361074B036263464362FEBDC046C5
:1010EC00880000208C000020000801400010024005
:1010FC007C00002080000020700000207400002084
:10110C00FFF0FFFF6400002068000020FF0FFFFFCE
:10111C00580000205C000020FFFFF0FF4C00002076
:10112C0050000020FFFF0FFF400000204400002073
:10113C00FFFFFFF0340000203800002028000020C2
:10114C002C000020001001401C000020200000207A
:10115C00F0B58BB0060068460D00FFF7C3FE144FC8
:10116C0001243A681300234022421ED111484360E7
:10117C0083600373104B86630360099BC563036133
:10118C00089B4361079B8361069BC361059B0362BC
:10119C00049B4362039B8362029BC362019B0363B8
:1011AC00009B4363FFF7B0FA3C6002480BB0F0BD04
:1011BC00F4000020F8000020E4310008FF23F0B513
:1011CC001D00064F064E0C7801315C403B5D6B40B8
:1011DC00355D8A42F7D105704370F0BD3F3200088F
:1011EC003F3300080100FC3110B54A688C680300DD
:1011FC000020944202D9501C4860985C10BD03003A
:10120C00FC339A68FE2A03D881549A6801329A609A
:10121C00704770B50C000500090AFFF7F0FFE1B24A
:10122C00FFF7EDFF280070BD0121FC3030B544699B
:10123C00226863680C009C402300102415692B4322
:10124C001361C269D368A343D360426A13688B43AA
:10125C001360026A13688B431360836840681B1A1F
:10126C0002339BB253601368194311601368DB0798
:10127C00FCD530BDF7B50400006900220300FC3337
:10128C005A609A60631D0E00A71DD97F012E20D1D4
:10129C00FFF7B5FF8023F97F1943FFF7B0FF31004B
:1012AC00FFF7ADFF216901A80B00FC339A685B685E
:1012BC008A18C918FFF782FF6B4620695979FFF726
:1012CC009EFF6B461979FFF79AFF2069FFF7ACFF79
:1012DC00F7BD80256D42022E05D1FFF790FFF97FF7
:1012EC002943C9B2D9E7FFF78AFFF97F2943C9B26D
:1012FC00FFF785FF0321D3E70200FC3253689268A5
:10130C00013370B504000D009A420BD9FFF76AFF48
:10131C0006002000FFF766FF3602C0B2304328807B
:10132C00200070BD00230B80FAE710B52822FEF7D1
:10133C0055FF43425841C0B210BD0B1A9B10002BF5
:10134C0014DD0278002A03D04278002A01D1013042
:10135C0070478278002A01D10230F9E7C278002A5E
:10136C0001D10330F4E70430013BE8E70B1A022B00
:10137C0009D0032B03D0012B09D00800E8E7037830
:10138C00002BE5D001300378002BE1D0013003783D
:10139C00002BF2D1DCE7000003000100F0B5FF22C6
:1013AC0004008FB0183301934031994202D01A7067
:1013BC000133FAE7250000272822002104A8FEF7B4
:1013CC0089FF54352069FFF73DF9009528002E68F8
:1013DC00FFF7C6FB5F4B9C4686420FD03378272B1A
:1013EC0008D801227178E3181976337804A9CA5405
:1013FC000236F1E733886345FAD1300026009C367B
:10140C0030602B68984205D1276401370835092FC5
:10141C00DCD10FE02800FFF7A3FB3368834266D0D2
:10142C00002327641A1C0EA904A8FFF786FF0EAB35
:10143C008342EAD1236C2500D800009B376818182A
:10144C00FFF78EFB4435874206D10123226CAB5447
:10145C0000232364636D336000230EA91A1C04A8B7
:10146C00FFF76BFF0EABC31A5A4253412600DBB297
:10147C0003930EABA23698423ED1282201996069A3
:10148C00FEF7D4FE0023337000262300443301936F
:10149C009B5D002B14D1236CB34211D0009BF00048
:1014AC001B580293009B1818FFF75AFB070001000A
:1014BC000298FFF771F8C01B431E9841019B985589
:1014CC000136092EE1D122004D32531B9B10002B0B
:1014DC0024DD2978002903D16978002911D0013540
:1014EC00AA4225D023000322A1331A7020E0230046
:1014FC0001224433DA5588E70123226CAB540433C0
:10150C00C1E7A978002901D00235E9E7E97800297B
:10151C0001D00335E4E70435013BD8E7531B022B1C
:10152C0012D0032B0CD0012B02D12B78002BD7D14E
:10153C008023226911690B43136103980FB0F0BD2E
:10154C002B78002BCCD101352B78002BC8D1013551
:10155C00EBE7C046FFFF00000B1A9B10002B14DDBD
:10156C000278002A03D04278002A01D1013070475A
:10157C008278002A01D10230F9E7C278002A01D121
:10158C000330F4E70430013BE8E70B1A022B09D0D7
:10159C00032B03D0012B09D00800E8E70378002BBC
:1015AC00E5D001300378002BE1D001300378002B1B
:1015BC00F2D1DCE703000100F0B5FF2204008FB08C
:1015CC00183301934031994202D01A700133FAE773
:1015DC00250000272822002104A8FEF77BFE5435A5
:1015EC002069FFF72FF8009528002E68FFF7B8FA4E
:1015FC005F4B9C4686420FD03378272B08D80122AC
:10160C007178E3181976337804A9CA540236F1E7D5
:10161C0033886345FAD1300026009C3630602B6845
:10162C00984205D1276401370835092FDCD10FE02A
:10163C002800FFF795FA3368834266D000232764AD
:10164C001A1C0EA904A8FFF787FF0EAB8342EAD140
:10165C00236C2500D800009B37681818FFF780FA18
:10166C004435874206D10123226CAB5400232364FA
:10167C00636D336000230EA91A1C04A8FFF76CFFDE
:10168C000EABC31A5A4253412600DBB203930EAB86
:10169C00A23698423ED1282201996069FEF7C6FD18
:1016AC000023337000262300443301939B5D002BF1
:1016BC0014D1236CB34211D0009BF0001B58029341
:1016CC00009B1818FFF74CFA070001000298FEF770
:1016DC0063FFC01B431E9841019B98550136092E90
:1016EC00E1D122004D32531B9B10002B24DD2978B5
:1016FC00002903D16978002911D00135AA4225D0DF
:10170C0023000322A1331A7020E02300012244336A
:10171C00DA5588E70123226CAB540433C1E7A9786E
:10172C00002901D00235E9E7E978002901D0033519
:10173C00E4E70435013BD8E7531B022B12D0032BF3
:10174C000CD0012B02D12B78002BD7D1802322690E
:10175C0011690B43136103980FB0F0BD2B78002B6C
:10176C00CCD101352B78002BC8D10135EBE7C04625
:10177C00FFFF00000B1A9B10002B14DD0278002ACF
:10178C0003D04278002A01D1013070478278002AB8
:10179C0001D10230F9E7C278002A01D10330F4E715
:1017AC000430013BE8E70B1A022B09D0032B03D0C2
:1017BC00012B09D00800E8E70378002BE5D00130B5
:1017CC000378002BE1D001300378002BF2D1DCE759
:1017DC0003000100F0B5FF2204008FB01833019311
:1017EC004031994202D01A700133FAE725000027E4
:1017FC002822002104A8FEF76DFD54352069FEF760
:10180C0021FF009528002E68FFF7AAF95F4B9C4634
:10181C0086420FD03378272B08D801227178E31831
:10182C001976337804A9CA540236F1E73388634534
:10183C00FAD1300026009C3630602B68984205D1D6
:10184C00276401370835092FDCD10FE02800FFF79A
:10185C0087F93368834266D0002327641A1C0EA9CB
:10186C0004A8FFF787FF0EAB8342EAD1236C250057
:10187C00D800009B37681818FFF772F94435874277
:10188C0006D10123226CAB5400232364636D3360B7
:10189C0000230EA91A1C04A8FFF76CFF0EABC31A89
:1018AC005A4253412600DBB203930EABA236984248
:1018BC003ED1282201996069FEF7B8FC00233370F1
:1018CC0000262300443301939B5D002B14D1236C21
:1018DC00B34211D0009BF0001B580293009B1818C8
:1018EC00FFF73EF9070001000298FEF755FEC01BFA
:1018FC00431E9841019B98550136092EE1D12200D7
:10190C004D32531B9B10002B24DD2978002903D169
:10191C006978002911D00135AA4225D02300032271
:10192C00A1331A7020E0230001224433DA5588E7F2
:10193C000123226CAB540433C1E7A978002901D0F0
:10194C000235E9E7E978002901D00335E4E70435ED
:10195C00013BD8E7531B022B12D0032B0CD0012BCD
:10196C0002D12B78002BD7D18023226911690B432C
:10197C00136103980FB0F0BD2B78002BCCD101353F
:10198C002B78002BC8D10135EBE7C046FFFF0000D8
:10199C00F0B5002504008026B24BB34F0360B34B67
:1019AC009BB0456085600573456185610577036172
:1019BC000762056509220291039154302900FEF754
:1019CC0089FCAB4AAB4BE266AB4AB6006267AB4AEA
:1019DC002566E267221D6366A6662667A667D6673C
:1019EC00803293622300A64910331160A5490193FC
:1019FC009160A549A0331161A44956609161A44935
:101A0C00D66011625661D66156625D701D709D7014
:101A1C001D71083300935D609D60009B009A1D73DF
:101A2C009C4B290013601761556115642200FC3230
:101A3C00170009223800FEF74DFC009A964B1565ED
:101A4C0086225200A35022000D32FF3256608A22A9
:101A5C0092495200A15022001532FF3256608E225C
:101A6C008F495200A15022001D32FF325660922243
:101A7C008C495200A15022002532FF32566096222A
:101A8C0089495200A15022002D32FF3256609A2211
:101A9C0086495200A15022003532FF3256609E22F8
:101AAC0083495200A15022003D32FF325660A222DF
:101ABC0080495200A15022004532FF325660A622C6
:101ACC007D495200A15022004D32FF325660BB6559
:101ADC0023005933FF335D701D711D709D70B2234F
:101AEC005B00E55023006533FF335D60B0232000BD
:101AFC00143217001573714A5B00E250A5305A4B33
:101B0C0029000922FF303B617D613D64FEF7E2FB59
:101B1C00DA226B4B52003D65A3502200B532FF32E6
:101B2C005660DE2267495200A1502200BD32FF32BE
:101B3C005660E22264495200A1502200C532FF32A5
:101B4C005660E62261495200A1502200CD32FF328C
:101B5C005660EA225E495200A1502200D532FF3273
:101B6C005660EE225B495200A1502200DD32FF325A
:101B7C005660F22258495200A1502200E532FF3241
:101B8C005660F62255495200A1502200ED32FF3228
:101B9C005660FA2252495200A1502200F532FF320F
:101BAC005660FE225200A350A3191D704D4B019894
:101BBC00E3181D704C4BE3181D7081239B00E31838
:101BCC001D70029D6562FFF7E7FB011E03D1282201
:101BDC002800FEF77FFB06AD002128222800FEF727
:101BEC0079FB009B18005D61FFF7E4FC011E03D13B
:101BFC0028222800FEF76EFB10AE002128223000B0
:101C0C00FEF768FB38007E61FFF7E2FD011E03D191
:101C1C0028223000FEF75EFB039F03AB290038003F
:101C2C0004940593FFF781FB002805D004A8FFF767
:101C3C0042F920001BB0F0BD31003800FFF775FBF6
:101C4C000028F3D131002800FFF76FFB2822011E7A
:101C5C0004D029003800FEF7E9FAE7E73800FEF770
:101C6C0039FBE3E72032000800200240FC31000879
:101C7C000068010800640108006C0108007001088C
:101C8C000074010800780108007C0108008001083C
:101C9C00008401080832000800880108008C010843
:101CAC00009001080094010800980108009C0108AC
:101CBC0000A0010800A4010800A8010814320008C3
:101CCC0000AC010800B0010800B4010800B801081C
:101CDC0000BC010800C0010800C4010800C80108CC
:101CEC0000CC01080102000002020000F0B5304CEB
:101CFC000822A5442F490AA8FEF798FA6021002271
:101D0C0008AB5B181A702C4B183108331D932B4BF6
:101D1C002B48219308AB5B181A802A4B89312893E6
:101D2C002C932DAB1A709523FF3129912B9108A977
:101D3C005B181A7096235B18FF211A702EAB1A7061
:101D4C000AAB1E921F92259227922A9022931DABCA
:101D5C009B1801321976082AF9D100210CA8FEF73C
:101D6C00B9FA2198FEF76EFC002628AD28002C68E5
:101D7C00FEF7F6FE8446144A0CA9A4450ED023782F
:101D8C00072B08D860781DAFFB1818760120237834
:101D9C00C8540234F1E723889342FAD12C942B686F
:101DAC00A34213D125960835012E1ED00126DDE75E
:101DBC00ECFCFFFFD4310008503400080020024036
:101DCC0000F8010800FC0108FFFF00002800FEF7E6
:101DDC00C7FE2C9B834200D1D1E20EAC21000CA893
:101DEC002596FEF771FB8442DDD1259B2C9CD800F7
:101DFC002C301DAB1818FEF7B3FE84420AD1259A7D
:101E0C00C4AB9B18EA4A9B1801221A700023259335
:101E1C00289B2C930EA90CA8FEF756FB0EAB0500C5
:101E2C00984200D0AFE2229B0822180023A901930C
:101E3C00FEF7FCF90023962108AA52181370782398
:101E4C0008AAD2181F001378002B11D1259A002A4A
:101E5C000ED028A8289EFEF783FE04000100300057
:101E6C00FEF79AFB241A601E844108AAD3191C7031
:101E7C00792308AAD2181F001378002B11D1259AA8
:101E8C00012A0ED02AA82A9EFEF76AFE0400010041
:101E9C003000FEF781FB241A601E844108AAD31976
:101EAC001C707A2408ABE418210026A8FEF73AFB34
:101EBC00844204D0952308AA9B1803221A7080230D
:101ECC00219A11690B4313610EAB9D4204D0082279
:101EDC00B8490AA8FEF7AAF91DA8FEF715FC0122BD
:101EEC00B54BB6481968114204D1B5491A60016066
:101EFC00042141600823B34CB34DA269B349134389
:101F0C00A3610123A26906681A43A2616A681140A1
:101F1C00802292040A436A6080223168AC4DD2025E
:101F2C0029400A433260AB4A01951568AA491D4203
:101F3C0004D1A34D13600D6005254D600823A269E3
:101F4C00A64E1343A36180230A68DB031568354052
:101F5C002B4301251360A24A02961668A14B2E4210
:101F6C0004D1974E15601E6006265E600822A56996
:101F7C002A43A2611E68802335689B4ADB04154006
:101F8C002B4301253360994B03921E68984A2E42CD
:101F9C0004D18B4E1D601660072656600823A56978
:101FAC00944F2B438025A3611668ED0533681B0104
:101FBC001B092B43012533603E688F4B2E40B446E2
:101FCC003E682E4207D1DA60624659608549186036
:101FDC0099601A743D600EAA23CB23C203CB03C2B3
:101FEC000EA8FEF7C2FD012108AB1873834B844A7F
:101FFC001868084204D17248196010600C205060B7
:10200C000823A1690B43A3611068019B4168194027
:10201C008023DB020B43436001207A4B7A491D6815
:10202C00054204D1664D18600D600D254D600823E6
:10203C00A0690343A3610D68029B68681840802364
:10204C00DB0303436B600125704B71481E682E4205
:10205C0004D15B4E1D6006600E2646600823A56900
:10206C002B43A3610668039B75681D408023DB042A
:10207C002B4373600126674B674D1F68374204D1B1
:10208C004F4F1E602F600F276F600823A6693343E4
:10209C008026A3612C68F60563681B011B0933437A
:1020AC005E4E6360336801241F002740234206D133
:1020BC005B4B34601A6059609860DD601F7413A824
:1020CC000200574B32CB32C212CB12C2FEF74DFD7F
:1020DC000AAB9D781E795871EB07DB0F0493AB07A5
:1020EC00DB0F02936B07DB0F0393EB069B0F019344
:1020FC00FEF79CFD4B4B012219684B4C0B006F09F2
:10210C001340114200D0A5E04849494AA161611D24
:10211C00CE7721002C3108326360A3602373E36116
:10212C002362E384A3620B702386E363414B22603A
:10213C00414A0833A3631368206162612464002B55
:10214C0000D129E11A005B68002BFBD13B4B53609B
:10215C000022354B9A643A4ADB6408325A64334A9B
:10216C001368002B00D11AE11A005B68002BFBD11D
:10217C00344B53602C4E0A22300000215030FEF7B5
:10218C00A9F83000102200215A30FEF7A3F83000D5
:10219C000A2200216A30FEF79DF830000A22002145
:1021AC007430FEF797F83000052200214CE0C04651
:1021BC0088FDFFFFD4310008E8000020EC0000206F
:1021CC00000C01400010024000000140FFFFFFF82E
:1021DC00FFFFF0FFDC000020E0000020FFFF0FFFFE
:1021EC00D0000020D4000020FFFFFFF0C40000202E
:1021FC00C80000205001002054010020B80000202D
:10220C00BC000020AC000020B0000020A00000208A
:10221C00A400002094000020980000203801002029
:10222C003C010020BC020020C00200205003002012
:10223C00443400086834000818040020F802002018
:10224C005C340008040300207F30FEF743F80122C1
:10225C00CD4B1A601F232A009A431B3B002A08D03F
:10226C00013B202A05D03C339D43403D6B426B41E2
:10227C000133C64A390013621369FC339A6AD86970
:10228C00FEF7AEFA029BC2495A02C3680B401343D5
:10229C00C360039BBF491A03C3680B401343C3605D
:1022AC00019BBD491A0303690B4013430361049B53
:1022BC00002B77D08023C268DB001343C3608023DC
:1022CC00C2689B011343C360206918AEFEF7C0FDC2
:1022DC001422002130000994FDF7FCFF0021099D18
:1022EC002FACAE4B28222173663534A83091319136
:1022FC0033912F93FDF7EEFFE5630D2508ABED1839
:10230C00200026646564FEF7FFF934A941A8FFF7A5
:10231C003FFB0822099B29005A331A80099B08AA03
:10232C0012895C331A80099B08AA52895E331A8081
:10233C00099B08AA127B60331A80099B08AA527B5E
:10234C0064331A800F22099B099874331A80663003
:10235C00FEF7FEFE099C099F2269FC329168536AC4
:10236C0052685B688A1AFF219BB2CB1A9A421DD223
:10237C0000232000E361FEF7A7F930BFEAE7012252
:10238C0026AB9A550FE5259AC4AB9B18844A9B182B
:10239C0001221A7005234EE5824B1360D8E6824B5E
:1023AC001360E7E6C368814A134087E7E369226A52
:1023BC009342E2DB00252000E561FEF785F92069F8
:1023CC000200FC32936851685E1A072E02D8FEF7A1
:1023DC003FFDD2E7661D0396465CB446661DF67F4C
:1023EC00B445F4D18B4202D9013B9360C55C936830
:1023FC000026994202D2013B9360C65C0300FC3379
:10240C009A684118821808A8FEF7D8FE08AB1B780A
:10241C00AB4204D108AB5B782069B34201D0206990
:10242C00D5E7FEF7DFFE2069FEF7DCFEA31D0500F5
:10243C000493D877052800D136E1102853D0012118
:10244C00032816D1210020692631FEF755FF210003
:10245C00260020692A31FEF74FFF628DE38C2C3663
:10246C00D318013B9BB2520023853270072B04D941
:10247C0002212000FEF7FEFE7FE720690022030008
:10248C00FC335A609A60631DD97FFEF7B8FE2900B1
:10249C00FEF7B5FE3178FEF7B2FE638D20695A1E49
:1024AC006285002B09D0E38C5A1C2C335B00E28430
:1024BC00E3185988FEF7ADFEEFE70300FC339A688A
:1024CC0059688218411808A8FEF778FE08AB5978AD
:1024DC002069FEF794FE08AB1978FEF790FE206990
:1024EC00FEF7A2FE49E7210020692631FEF704FF22
:1024FC00210020692A31FEF7FFFE2100628DE38C5A
:10250C002C31D318013B9BB2520023850A70042B4B
:10251C00AED820690200FC32536895689D4231D9CF
:10252C005D1C5560C35C00250B70638D266902939E
:10253C00AB424ED9210030002E31FEF7DDFEE38C8C
:10254C005B19E2187F3211785B00E28D00292FD0E5
:10255C00E318180011B28C466A3006880021405EE0
:10256C00844501DA002E32D118007430068800211F
:10257C00405E844501DD002E29D1503301351A808F
:10258C00ADB2D2E70023CEE7BC020020C00200208F
:10259C00FFFDFFFFFFEFFFFFFFCFFFFFF031000854
:1025AC0088FDFFFFF802002004030020FFFBFFFF63
:1025BC00E31819006A3109888A4201D2002906D130
:1025CC001900743109888A42D7D90029D5D0032142
:1025DC004FE73B0000255833069310330793029ABC
:1025EC00ABB2934244D2E08C401904280AD8FDF7D0
:1025FC00C5FE030B150925003B0050331A88DA8100
:10260C0008AB5A810135EAE73B005233294A1B8853
:10261C009B185A425341284A1370F3E7264B1B78F8
:10262C00002B07D03B003A0054331B885C321380DC
:10263C0008AA13810122204B1A70E3E7069B1B8822
:10264C000193092B0DD9349B3C2118000593FDF700
:10265C009FFE079B80B218803B00019A62331A8060
:10266C00D0E7019B2FAA9B00D3183C215869EEE7B9
:10267C0033000022FC335A609A60039B3000D97FF0
:10268C00FEF7BDFD049BD97FFEF7B9FDE18CFEF78B
:10269C00C0FD618DFEF7BDFD21690B00FC339A680E
:1026AC005B688A18C9180EE7210020692631FEF7ED
:1026BC0023FEDDE649FBFFFF4403002030B50B1A77
:1026CC009B10002B15DD14780578A54203D04578B6
:1026DC00A54201D1013030BD8578A54201D102302F
:1026EC00F9E7C578A54201D10330F4E70430013B8A
:1026FC00E7E70B1A022B0AD0032B03D0012B0BD0CC
:10270C000800E8E7047813789C42E4D001300478A0
:10271C0013789C42DFD00130047813789C42EFD1BF
:10272C00D9E70000F0B5050041352B780400466967
:10273C0085B0D8B2052B17D8FDF720FE03183772D9
:10274C0098C5220044321378E118F65C097E8E425B
:10275C0000D0D4E00133DBB2072B00D81800107086
:10276C00434258414034207005B0F0BD2069C36825
:10277C00DB07F9D403691B06F6D5FDF763FF0221CD
:10278C0023691A698A431A610122186902431A6182
:10279C00230044331A78013BB05C18701B78E06B53
:1027AC001B02134303802970DEE72369DA68920663
:1027BC00DAD52022D96826000A43DA60802219690A
:1027CC0027000A431A612300443643331A783378BE
:1027DC002C37E3181A76E36B0233E363236AD800D1
:1027EC003818FEF7BDF92100E36B4231834203D068
:1027FC000B78DBB22B70B7E70120236AE2180532A5
:10280C001B18D077834200D900232362DB00DB59ED
:10281C00E3630023337001332B7004330B70A3E795
:10282C002769FB68DB079FD43B691B069CD52300FB
:10283C0026002433019302ABDA1D01232636310026
:10284C0001981370FFF73AFFB04202D1423423785B
:10285C00CFE7019BC01AA0623800FDF7F3FEA36A14
:10286C00284AD15CFDF7FAFE0423C3E72369DA6832
:10287C00920600D478E72022D96820000A43DA6057
:10288C00802219692C300A431A61A36ADB00C01834
:10289C000768FEF765F9010006003800FDF77CFEBD
:1028AC00861B701E8641A36A2000E3180533DE7771
:1028BC002600263631002430FDF734FE03238642F1
:1028CC0098D1002396E72200443213780133DBB20F
:1028DC00072B11D900231370260020002636310057
:1028EC002430FDF71FFE0323864200D100232B70FA
:1028FC0000234234237037E71370002BECD00123F4
:10290C0078E7C0463F34000803004D304433C21A08
:10291C009210002A18DD1978002903D15978002962
:10292C0005D00133C01A431E9841C0B27047997844
:10293C00002901D00233F5E7D978002901D00333FF
:10294C00F0E70433013AE4E7C21A022A09D0032A59
:10295C0003D0012A09D00300E4E71A78002AE1D158
:10296C0001331A78002ADDD101331A78002AF2D00B
:10297C00D8E70000F0B50500A1352B7804004669B6
:10298C0085B0D8B2052B17D8FDF7F8FC03183876AC
:10299C009CC62200A4321378E118F65C097E8E42A4
:1029AC0000D0D2E00133DBB2272B00D81800107016
:1029BC0043425841A034207005B0F0BD2069C36873
:1029CC00DB07F9D403691B06F6D5FDF73BFE0221A4
:1029DC0023691A698A431A610122186902431A6130
:1029EC002300A4331A78013BB05C9C3418701B781C
:1029FC0020681B02134303802970DDE72369DA6822
:102A0C009206D9D52022D96826000A43DA608022A2
:102A1C00196927000A431A612300A3331A7801337A
:102A2C0001931B789C36E3181A76336854370233BB
:102A3C003360236CD8003818FEF792F82100336805
:102A4C00A231834203D00B78DBB22B70B4E70120A8
:102A5C00236CE21844321B181070082B00D9002389
:102A6C002364DB00DB59019A3360002313700133BC
:102A7C002B7004330B709FE72769FB68DB079BD433
:102A8C003B691B0698D5230026004433019302AB07
:102A9C00DA1D01234D36310001981370FFF70EFE3D
:102AAC00B04202D1A2342378CEE7019BC01A206534
:102ABC003800FDF7C7FD236D254AD15CFDF7CEFD2F
:102ACC000423C2E72369DA68920600D474E7202253
:102ADC00D96820000A43DA608022196954300A430D
:102AEC001A61236DDB00C0180768FEF739F8010086
:102AFC0006003800FDF750FD361A701E8641236D16
:102B0C002000E31844331E70FFF7FEFE421E904176
:102B1C0003234042034098E72200A4321378013388
:102B2C00DBB2272B0ED9002313702000FFF7ECFE2D
:102B3C00421E90410323404203402B700023A234D9
:102B4C00237039E71370002BEFD001237DE7C046CB
:102B5C002432000803004D304433C21A9210002A6C
:102B6C0018DD1978002903D15978002905D00133D3
:102B7C00C01A431E9841C0B270479978002901D001
:102B8C000233F5E7D978002901D00333F0E7043399
:102B9C00013AE4E7C21A022A09D0032A03D0012A17
:102BAC0009D00300E4E71A78002AE1D101331A783E
:102BBC00002ADDD101331A78002AF2D0D8E70000C0
:102BCC00F0B50500A1352B780400466985B0D8B264
:102BDC00052B17D8FDF7D2FB031838769CC62200BC
:102BEC00A4321378E118F65C097E8E4200D0D2E054
:102BFC000133DBB2272B00D8180010704342584128
:102C0C00A034207005B0F0BD2069C368DB07F9D48F
:102C1C0003691B06F6D5FDF715FD022123691A6918
:102C2C008A431A610122186902431A612300A433F2
:102C3C001A78013BB05C9C3418701B7820681B021E
:102C4C00134303802970DDE72369DA689206D9D52E
:102C5C002022D96826000A43DA60802219692700ED
:102C6C000A431A612300A3331A78013301931B78AA
:102C7C009C36E3181A763368543702333360236C6E
:102C8C00D8003818FDF76CFF21003368A23183425D
:102C9C0003D00B78DBB22B70B4E70120236CE21865
:102CAC0044321B181070082B00D900232364DB005E
:102CBC00DB59019A33600023137001332B700433FA
:102CCC000B709FE72769FB68DB079BD43B691B06EE
:102CDC0098D5230026004433019302ABDA1D01235F
:102CEC004D36310001981370FFF7E8FCB04202D169
:102CFC00A2342378CEE7019BC01A20653800FDF77B
:102D0C00A1FC236D254AD15CFDF7A8FC0423C2E786
:102D1C002369DA68920600D474E72022D96820006F
:102D2C000A43DA608022196954300A431A61236D10
:102D3C00DB00C0180768FDF713FF01000600380020
:102D4C00FDF72AFC361A701E8641236D2000E3180D
:102D5C0044331E70FFF7FEFE421E90410323404297
:102D6C00034098E72200A43213780133DBB2272BFF
:102D7C000ED9002313702000FFF7ECFE421E904189
:102D8C000323404203402B700023A234237039E705
:102D9C001370002BEFD001237DE7C0462D320008C5
:102DAC0003004D304433C21A9210002A18DD1978F2
:102DBC00002903D15978002905D00133C01A431ECC
:102DCC009841C0B270479978002901D00233F5E7D9
:102DDC00D978002901D00333F0E70433013AE4E752
:102DEC00C21A022A09D0032A03D0012A09D00300EF
:102DFC00E4E71A78002AE1D101331A78002ADDD1F0
:102E0C0001331A78002AF2D0D8E70000F0B505009B
:102E1C00A1352B780400466985B0D8B2052B17D89C
:102E2C00FDF7ACFA031838769CC62200A43213784E
:102E3C00E118F65C097E8E4200D0D2E00133DBB2A1
:102E4C00272B00D81800107043425841A034207032
:102E5C0005B0F0BD2069C368DB07F9D403691B0614
:102E6C00F6D5FDF7EFFB022123691A698A431A6133
:102E7C000122186902431A612300A4331A78013B1A
:102E8C00B05C9C3418701B7820681B0213430380C1
:102E9C002970DDE72369DA689206D9D52022D96832
:102EAC0026000A43DA608022196927000A431A6156
:102EBC002300A3331A78013301931B789C36E31853
:102ECC001A763368543702333360236CD8003818C1
:102EDC00FDF746FE21003368A231834203D00B7804
:102EEC00DBB22B70B4E70120236CE21844321B18C0
:102EFC001070082B00D900232364DB00DB59019AE6
:102F0C0033600023137001332B7004330B709FE775
:102F1C002769FB68DB079BD43B691B0698D523000C
:102F2C0026004433019302ABDA1D01234D363100E8
:102F3C0001981370FFF7C2FBB04202D1A234237880
:102F4C00CEE7019BC01A20653800FDF77BFB236D93
:102F5C00254AD15CFDF782FB0423C2E72369DA68BA
:102F6C00920600D474E72022D96820000A43DA6064
:102F7C008022196954300A431A61236DDB00C01892
:102F8C000768FDF7EDFD010006003800FDF704FBB6
:102F9C00361A701E8641236D2000E31844331E70D0
:102FAC00FFF7FEFE421E904103234042034098E788
:102FBC002200A43213780133DBB2272B0ED9002365
:102FCC0013702000FFF7ECFE421E90410323404299
:102FDC0003402B700023A234237039E71370002BAD
:102FEC00EFD001237DE7C0463632000800230121D3
:102FFC0010B53E4A136053609360D3601361516106
:10300C003B4A1068884310603A4850600420936033
:10301C00146820431060022014682043106010686C
:10302C00014311602321344A13601171334A023178
:10303C0013601171324A013113601171314A01313F
:10304C0013601171304A1C39136011712F4A013110
:10305C00136011712E4A0131136011712D4A013127
:10306C00136011712C4A0131136011712B4A01311B
:10307C00136011712A4A013113601171294A0B39FD
:10308C0013601171284A013113601171274A013103
:10309C0013601171264A013113601171254A0131F7
:1030AC0013601171172224490B600A7123490B60BC
:1030BC000A7123490B600A7122490B600A7122497B
:1030CC000B600A71214911320B600A7120490B60A7
:1030DC000A7120490B600A711F490B600A711F4964
:1030EC000B600A711E490B600A7110BD2004002090
:1030FC0010E000E03F19010000040020080400204B
:10310C001004002018040020480300205003002065
:10311C005803002060030020680300207003002087
:10312C00780300208003002088030020C0030020C7
:10313C00C8030020D0030020D8030020E0030020A7
:10314C00E8030020F0030020F80300209003002087
:10315C0098030020A0030020A8030020B003002047
:10316C00B8030020002103E00B4B5B5843500431A3
:10317C000A480B4B42189A42F6D30A4A02E0002343
:10318C0042F8043B084B9A42F9D3FDF705FDFDF7D5
:10319C0003F8FEF7ABFD70478034000800000020F8
:1031AC00000000200000002038040020FEE7000092
:1031BC00F8B5C046F8BC08BC9E467047F8B5C0468A
:0831CC00F8BC08BC9E467047E8
:1031D40000000000010500000000000000000000E5
:1031E400110600080000000000000000C1050008EE
:1031F4000000000000000000192E0008000000007C
:1032040000000000CD2B00080000000000000000BA
:103214008129000800000000000000003D070008AC
:103224006B6C6D6E6F7071727362636465666768F0
:10323400696A595A5B5C5D5E5F606100C1814001EF
:10324400C0804101C0804100C1814001C080410073
:10325400C1814000C1814001C0804101C080410062
:10326400C1814000C1814001C0804100C181400151
:10327400C0804101C0804100C1814001C080410043
:10328400C1814000C1814001C0804100C181400131
:10329400C0804101C0804100C1814000C181400122
:1032A400C0804101C0804100C1814001C080410013
:1032B400C1814000C1814001C0804101C080410002
:1032C400C1814000C1814001C0804100C1814001F1
:1032D400C0804101C0804100C1814000C1814001E2
:1032E400C0804101C0804100C1814001C0804100D3
:1032F400C1814000C1814001C0804100C1814001C1
:10330400C0804101C0804100C1814001C0804100B2
:10331400C1814000C1814001C0804101C0804100A1
:10332400C1814000C1814001C0804100C181400190
:10333400C0804101C0804100C1814000C0C101C3BF
:103344000302C2C60607C705C5C404CC0C0DCD0FC5
:10335400CFCE0E0ACACB0BC90908C8D81819D91B75
:10336400DBDA1A1EDEDF1FDD1D1CDC14D4D515D7F5
:103374001716D6D21213D311D1D010F03031F13345
:10338400F3F23236F6F737F53534F43CFCFD3DFF05
:103394003F3EFEFA3A3BFB39F9F83828E8E929EBD5
:1033A4002B2AEAEE2E2FEF2DEDEC2CE42425E52735
:1033B400E7E62622E2E323E12120E0A06061A163A5
:1033C400A3A26266A6A767A56564A46CACAD6DAF45
:1033D4006F6EAEAA6A6BAB69A9A86878B8B979BBF5
:1033E4007B7ABABE7E7FBF7DBDBC7CB47475B57775
:1033F400B7B67672B2B373B17170B0509091519305
:1034040053529296565797559594549C5C5D9D5F84
:103414009F9E5E5A9A9B5B99595898884849894B54
:103424008B8A4A4E8E8F4F8D4D4C8C4484854587B4
:1034340047468682424383418180407F7E0000006C
:103444000000000000000000CD040008000000009F
:103454000000000031270008000000000000000008
:10346400A70E00080000000000000000BD070008CF
:0834740081010008F92F000896
:04347C0055010008EE
:04000005080031714D
:00000001FF
